:100000000C9476000C9488000C9488000C94880062
:100010000C9488000C9488000C9488000C94880040
:100020000C9488000C9488000C9488000C94880030
:100030000C9488000C9488000C9488000C94880020
:100040000C9488000C9488000C9488000C94880010
:100050000C9488000C9488000C9488000C94880000
:100060000C9488000C9488000C9488000C948800F0
:100070000C9488000C9488000C9488000C948800E0
:100080000C9488000C9488000C9488000C948800D0
:100090000C9488000C9488000C9488000C948800C0
:1000A0000C9488000C9488000C9488000C948800B0
:1000B0000C9488000C9488000C9488000C948800A0
:1000C0000C9488000C9488000C9488000C94880090
:1000D0000C9488000C9488000C9488000C94880080
:1000E0000C9488000C9488000C94880011241FBE86
:1000F000CFEFCDBFDFE7DEBF20E4A0E0B0E401C07A
:100100001D92A230B207E1F70E948A000C94B5005C
:100110000C940000E0E6F4E08389887F838B838978
:100120008460838B8489887F848B84898460848BBA
:100130008389877F838B8489877F848B81E0809309
:10014000A000E0E0F6E0828393E2908393E0908762
:1001500094E091878287858580FFFDCF8089918992
:0E0160008093004090930140F6CFF894FFCFBB
:00000001FF
